:020000040800F2
:100000007004002049010008510100085301000854
:1000100055010008570100085901000800000000C0
:100020000000000000000000000000005B0100086C
:100030005D010008000000005F010008A105000844
:100040006301000863010008630100086301000800
:1000500063010008630100086301000863010008F0
:1000600063010008630100086301000863010008E0
:1000700063010008630100086301000863010008D0
:1000800063010008630100086301000863010008C0
:1000900063010008630100086301000863010008B0
:1000A00063010008390600086301000863010008C5
:1000B0006301000863010008630100086301000890
:1000C0006301000863010008630100086301000880
:1000D000630100088106000863010008630100084D
:1000E0006301000863010008630100086301000860
:1000F0006301000863010008630100086301000850
:10010000630100086301000863010008630100083F
:1001100063010008630100085D0600086301000830
:10012000630100086301000863010008630100081F
:10013000DFF810D000F030F80048004775080008DC
:10014000AFF300807004002006488047064800474F
:10015000FEE7FEE7FEE7FEE7FEE7FEE7FEE7FEE777
:10016000FEE7FEE7D90500083101000830B50B466F
:10017000014600202022012409E021FA02F59D42D7
:1001800005D303FA02F5491B04FA02F52844151EAB
:10019000A2F10102F1DC30BD064C074D06E0E0683B
:1001A00040F0010394E8070098471034AC42F6D3BE
:1001B000FFF7C2FFA4080008C408000810B54C48A7
:1001C000806940F400604A4988610846806940F0CF
:1001D000040088614748006840F00B00454908600A
:1001E0000846006820F00400086041F61F404249BC
:1001F000088041F28730091D08803F482838008870
:1002000020F010003C492839088004203A49083180
:10021000088039481038008820F00300364910392A
:10022000088040F6C41034490C3108803248083840
:10023000008800F00200304908390880084600882C
:1002400040F0010008802C481038008840F0600021
:100250002949103908800846008820F010000880DD
:1002600025481C30008840F4004023491C31088098
:1002700021481438008840F001001F4914390880D3
:10028000081F008820F00100091F0880081F00884F
:1002900040F00100091F088003200246174B19682F
:1002A0004FF6FF031940164B0B4343EA0221134B51
:1002B000196000BF19200321002808DA0A07140E6C
:1002C0000E4A0C3200F00F031B1FD45403E00A0740
:1002D000130E0C4A135400BF19200121814042091A
:1002E000920002F1E022C2F8001100BF10BD000030
:1002F0000010024004080140282C01400CED00E0F1
:100300000000FA0500E400E00348008840F0010026
:100310000149088070470000002C01400348008814
:1003200020F001000149088070470000002C0140C6
:1003300010B54448806940F48040424988610846CD
:10034000806940F0040088613F48006840F0800008
:100350003D4908600846006820F0400008600846F3
:10036000006840F0300008600846006820F4006033
:1003700008600846006840F480600860084600682D
:1003800020F44070086040F2712030490880081D58
:10039000008820F48050091D08800846008820F459
:1003A00080600880081D008820F44050091D0880E6
:1003B000081F008840F00800091F088008460088D0
:1003C00040F0040008800846008840F020000880C3
:1003D0000846008840F010000880032002461C4BAD
:1003E00019684FF6FF0319401A4B0B4343EA0221E9
:1003F000174B196000BF25200221002808DA0A07E0
:10040000140E134A0C3200F00F031B1FD45403E0E8
:100410000A07130E104A135400BF252000F01F02D4
:10042000012191404209920002F1E022C2F800113C
:1004300000BF0648001D008840F400500349091D14
:10044000088010BD00100240040801400838014037
:100450000CED00E00000FA0500E400E000BF0549F3
:10046000098801F080010029F9D00249091D08809E
:100470007047000000380140024909680143014A01
:10048000116070470C080140024909688143014A24
:10049000116070470C08014000B50346054800682C
:1004A000184018B91846FFF7E7FF02E01846FFF7B3
:1004B000EBFF00BD0808014010B500F001F810BDC9
:1004C0000CB50020019000903348006840F4803063
:1004D0003149086000BF3048006800F400300090E7
:1004E0000198401C0190009818B90198B0F5A06FD0
:1004F000F1D12948006800F4003010B101200090CB
:1005000001E0002000900098012843D123480068B2
:1005100040F01000214908600846006820F00700FC
:1005200008600846006840F0020008601A48406809
:10053000194948600846406848600846406840F4E9
:10054000806048600846406820F47C104860084697
:10055000406840F4E81048600846006840F0807049
:10056000086000BF0C48006800F000700028F9D057
:100570000948406820F00300074948600846406881
:1005800040F00200486000BF0348406800F00C00E3
:100590000828F9D10CBD00000010024000200240E4
:1005A00010B50B480088401C09490880084600889F
:1005B000B0F57A7F0AD10846018806A000F088F8D5
:1005C0000020034908800120FFF766FF10BD0000EE
:1005D000020000202564000010B51348006840F0B8
:1005E00001001149086008464068104908400E495A
:1005F0004860084600680E4908400B4908600846F4
:10060000006820F4802008600846406820F4FE005E
:1006100048604FF41F008860FFF74EFF4FF0006006
:100620000449086010BD0000001002400000FFF8FF
:10063000FFFFF6FE08ED00E010B506A000F048F858
:100640000548008820F0010003490880FFF766FE96
:1006500010BD0000610D0A00102C014010B50648C5
:10066000008A20F00100044908820120FFF714FFEE
:1006700002A000F02DF810BD00100040310D0A005E
:100680000F48008800F0200060B10D48001D008870
:100690000C490D4A127888540B480078401C0A49CE
:1006A00008700CE00648008800F0100038B10448DB
:1006B00000880348001D0088012004490870704725
:1006C0000038014008000020000000200100002048
:1006D0000FB4054B10B503A9044A029800F018F8AE
:1006E00010BC5DF814FB0000650800080400002041
:1006F00002E008C8121F08C1002AFAD170477047EB
:10070000002001E001C1121F002AFBD17047000048
:100710002DE9FF4F89B09B460446002506E02528B9
:100720000BD05A460B999047641C6D1C207800280A
:10073000F5D10DB02846BDE8F08F0027B84601225C
:10074000474900E0074314F8013F203B02FA03F059
:100750000842F7D120782E2819D114F8010F47F05C
:1007600004072A280ED06FF02F022078A0F1300164
:1007700009290CD808EB880102EB410100EB0108C4
:10078000641CF2E70A98641C50F8048B0A902078E5
:100790000028CED0642808D0692806D075281ED03D
:1007A0005A460B9990476D1C58E00A994FF00A0978
:1007B00001C90A91002802DA40422D2102E03905E0
:1007C00004D52B218DF82010012103E0F90704D076
:1007D0002021F7E78A4608AE0DE00021FAE70A99E2
:1007E0004FF00A0901C90A91F7E74946FFF7BEFC35
:1007F000303106F8011D0028F7D1ADEB060000F1FD
:100800002009780701D44FF00108C84502DDA8EBA4
:10081000090000E000208046002706E008A85A46AC
:10082000C05D0B9990476D1C7F1C5745F6DB04E0BB
:1008300030205A460B9990476D1CB8F10001A8F181
:100840000108F5DC05E016F8010B5A460B999047B4
:100850006D1CB9F10001A9F10109F4DC641C65E724
:100860000928010000B502460B46D0B2FFF7F6FD9D
:10087000104600BDFFF75CFD04A0FFF729FFFFF75E
:100880009DFCFFF741FD00BFFEE70000B8DFBCB6EE
:10089000B6A8CAB1C6F7CAB5D1E9BFAACABC2E2E3E
:1008A0002E0D0A00C4080008000000200800000007
:1008B000F0060008CC0800080800002068040000CA
:0C08C0000007000800000000000000001D
:0400000508000131BD
:00000001FF
