:020000040800F2
:100000007004002049010008510100085301000854
:1000100055010008570100085901000800000000C0
:100020000000000000000000000000005B0100086C
:100030005D010008000000005F010008490700089A
:100040006301000863010008630100086301000800
:1000500063010008630100086301000863010008F0
:1000600063010008630100086301000863010008E0
:1000700063010008630100086301000863010008D0
:1000800063010008630100086301000863010008C0
:1000900063010008630100086301000863010008B0
:1000A00063010008630100086301000863010008A0
:1000B0006301000863010008630100086301000890
:1000C0006301000863010008630100086301000880
:1000D00063010008050800086301000863010008C7
:1000E000F1050008630100086301000863010008CE
:1000F0006301000863010008630100086301000850
:10010000630100086301000863010008630100083F
:100110006301000863010008E107000863010008AB
:10012000630100086301000863010008630100081F
:10013000DFF810D000F030F800480047F909000857
:10014000AFF300807004002006488047064800474F
:10015000FEE7FEE7FEE7FEE7FEE7FEE7FEE7FEE777
:10016000FEE7FEE7810700083101000830B50B46C5
:10017000014600202022012409E021FA02F59D42D7
:1001800005D303FA02F5491B04FA02F52844151EAB
:10019000A2F10102F1DC30BD064C074D06E0E0683B
:1001A00040F0010394E8070098471034AC42F6D3BE
:1001B000FFF7C2FF9C0A0008BC0A00081849C96979
:1001C00041F01001164AD16141F61F41154A1185CF
:1001D00000EB80014900491E91851146898A41F052
:1001E000010191821146098A21F001011182114613
:1001F000098841F00101118000BF0A49098A01F014
:1002000001010029F9D00749098A21F00101054AB5
:1002100011821146098821F0010111807047000008
:10022000001002400010004010B53448806940F0D2
:100230008000324988610846806940F00100886189
:100240002F48006820F440702D4908600846006877
:1002500040F4006008600846006820F48060086090
:1002600027480830006820F480602549083108607C
:100270002448006920F4706122480161006940F45B
:10028000A061204801612048006840F480601E4958
:1002900008601D480838006840F480601A49083931
:1002A000086003200246194B19684FF6FF031940F6
:1002B000174B0B4343EA0221144B196000BF28205F
:1002C0000321002808DA0A07140E104A0C3200F045
:1002D0000F031B1FD45403E00A07130E0D4A1354D7
:1002E00000BF282000F01F02012191404209920026
:1002F00002F1E022C2F8001100BF10BD0010024060
:10030000041C014000000140080401400CED00E025
:100310000000FA0500E400E01E48806940F080001B
:100320001C4988610846806940F0010088611A48CC
:10033000006820F44050184908600846006840F4FE
:10034000004008600846006820F4804008601248B9
:100350000830006820F400600F49083108600F4839
:10036000006920F470410D480161006940F4A0412A
:100370000A4801610A48006840F4006008490860C2
:1003800007480838006840F40060054908390860EB
:100390007047000000100240041C014000000140B2
:1003A000080401402548C06940F002002349C861A3
:1003B0000846806940F0080088612148006840F0E4
:1003C0000B001F4908600846006820F00400086020
:1003D00047201C4908806320091D088019482838D7
:1003E000008820F01000174928390880612015493D
:1003F0001431088013480C38008820F0030011499C
:100400000C3908800846008840F040000880084603
:10041000008840F0200008800846008820F0100086
:100420000880081D008840F48070091D0880084677
:10043000008820F40070088070470000001002401F
:10044000000C01402804004001490880704700006A
:100450003C0400400348008840F001000149088046
:10046000704700000004004010B54448806940F423
:100470008040424988610846806940F004008861F4
:100480003F48006840F080003D4908600846006829
:1004900020F0400008600846006840F03000086026
:1004A0000846006820F4006008600846006840F4D0
:1004B000806008600846006820F44070086040F2E0
:1004C000712030490880081D008820F48050091DE3
:1004D00008800846008820F480600880081D008895
:1004E00020F44050091D0880081F008840F00800D3
:1004F000091F08800846008840F00400088008466C
:10050000008840F0200008800846008840F0100075
:100510000880032002461C4B19684FF6FF03194060
:100520001A4B0B4343EA0221174B196000BF2520E9
:100530000221002808DA0A07140E134A0C3200F0D0
:100540000F031B1FD45403E00A07130E104A135461
:1005500000BF252000F01F020121914042099200B6
:1005600002F1E022C2F8001100BF0648001D008819
:1005700040F400500349091D088010BD00100240DE
:1005800004080140083801400CED00E00000FA05C5
:1005900000E400E000BF0549098801F0800100295E
:1005A000F9D00249091D0880704700000038014059
:1005B000024909680143014A116070470C08014073
:1005C000024909688143014A116070470C080140E3
:1005D00000B5034605480068184018B91846FFF7EB
:1005E000E7FF02E01846FFF7EBFF00BD08080140F7
:1005F00010B51748006800F4806088B1144800689E
:1006000040F48060124908600520FFF7D7FD1148CB
:10061000006800F48060C8B101200F49087015E03F
:100620000B48006800F4006080B10948006840F49D
:100630000060074908600520FFF7C0FD0548006815
:1006400000F4006010B101200449087010BD0000E2
:1006500014040140081C0140040000200500002093
:1006600010B500F001F810BD0CB50020019000900D
:100670003348006840F480303149086000BF30489A
:10068000006800F4003000900198401C0190009830
:1006900018B90198B0F5A06FF1D12948006800F4AD
:1006A000003010B10120009001E00020009000987F
:1006B000012843D12348006840F010002149086018
:1006C0000846006820F0070008600846006840F00F
:1006D000020008601A4840681949486008464068A6
:1006E00048600846406840F48060486008464068BA
:1006F00020F47C1048600846406840F4E8104860E8
:100700000846006840F08070086000BF0C48006830
:1007100000F000700028F9D00948406820F003007C
:10072000074948600846406840F00200486000BF42
:100730000348406800F00C000828F9D10CBD000007
:10074000001002400020024010B50B480088401CF9
:100750000949088008460088B0F57A7F0AD1084622
:10076000018806A000F076F80020034908800120E7
:10077000FFF72EFF10BD00000200002025640000DE
:1007800010B51348006840F00100114908600846A0
:100790004068104908400E494860084600680E4904
:1007A00008400B4908600846006820F48020086073
:1007B0000846406820F4FE0048604FF41F0088603F
:1007C000FFF74EFF4FF000600449086010BD0000C5
:1007D000001002400000FFF8FFFFF6FE08ED00E009
:1007E00010B50648008A20F0010004490882012063
:1007F000FFF7EEFE02A000F02DF810BD0010004043
:10080000310D0A000F48008800F0200060B10D484B
:10081000001D00880C490D4A127888540B48007856
:10082000401C0A4908700CE00648008800F01000DF
:1008300038B1044800880348001D0088012004499D
:1008400008707047003801400C00002000000020B4
:10085000010000200FB4054B10B503A9044A02980B
:1008600000F018F810BC5DF814FB0000E90900085E
:100870000800002002E008C8121F08C1002AFAD1AF
:1008800070477047002001E001C1121F002AFBD110
:10089000704700002DE9FF4F89B09B4604460025B4
:1008A00006E025280BD05A460B999047641C6D1C16
:1008B00020780028F5D10DB02846BDE8F08F00273C
:1008C000B8460122474900E0074314F8013F203BA6
:1008D00002FA03F00842F7D120782E2819D114F833
:1008E000010F47F004072A280ED06FF02F0220785E
:1008F000A0F1300109290CD808EB880102EB410175
:1009000000EB0108641CF2E70A98641C50F8048BA1
:100910000A9020780028CED0642808D0692806D014
:1009200075281ED05A460B9990476D1C58E00A99BD
:100930004FF00A0901C90A91002802DA40422D212C
:1009400002E0390504D52B218DF82010012103E0A8
:10095000F90704D02021F7E78A4608AE0DE0002110
:10096000FAE70A994FF00A0901C90A91F7E74946DF
:10097000FFF7FCFB303106F8011D0028F7D1ADEB85
:10098000060000F12009780701D44FF00108C8459E
:1009900002DDA8EB090000E000208046002706E009
:1009A00008A85A46C05D0B9990476D1C7F1C57459F
:1009B000F6DB04E030205A460B9990476D1CB8F1E5
:1009C0000001A8F10108F5DC05E016F8010B5A4614
:1009D0000B9990476D1CB9F10001A9F10109F4DCF4
:1009E000641C65E70928010000B502460B46D0B239
:1009F000FFF7D0FD104600BDFFF736FD1DA0FFF745
:100A000029FFFFF711FCFFF787FCFFF7CBFCFFF78F
:100A100021FD32242046FFF717FD29E01948007810
:100A200088B1002017490870601D44B2642C01DBB6
:100A3000642000E020460446E0B2FFF705FD2146B1
:100A400011A0FFF707FF1248007888B10020104975
:100A50000870601F44B2002C01DC002000E020463A
:100A60000446E0B2FFF7F0FC21460AA0FFF7F2FED1
:100A7000D4E70000CAB5D1E9BFAACABC2E2E2E0DFC
:100A80000A00000004000020333D25640D0A000028
:100A900005000020343D25640D0A0000BC0A000852
:100AA000000000200C00000074080008C80A0008BC
:100AB0000C0000206404000084080008000000000E
:080AC00000000000000000002E
:0400000508000131BD
:00000001FF
