:020000040800F2
:10000000C8060020CD010008D5010008D70100086E
:10001000D9010008DB010008DD0100080000000034
:10002000000000000000000000000000DF010008E8
:10003000E101000800000000E3010008E5010008FC
:10004000E7010008E7010008E7010008E7010008F0
:10005000E7010008E7010008E7010008E7010008E0
:10006000E7010008E7010008E7010008E7010008D0
:10007000E7010008E7010008E7010008E7010008C0
:10008000E7010008E7010008E7010008E7010008B0
:10009000E7010008E7010008E7010008E7010008A0
:1000A000E7010008E7010008E7010008E701000890
:1000B000E7010008E7010008E7010008E701000880
:1000C000E7010008E7010008E7010008E701000870
:1000D000E701000835050008E7010008E70100080E
:1000E000E7010008E7010008E7010008E701000850
:1000F000E7010008E7010008E7010008E701000840
:10010000E7010008E7010008E7010008E70100082F
:10011000E7010008E7010008E7010008E70100081F
:10012000E7010008E7010008E7010008E70100080F
:1001300000F002F800F03AF80AA090E8000C8244BF
:100140008344AAF10107DA4501D100F02FF8AFF29C
:10015000090EBAE80F0013F0010F18BFFB1A43F0A5
:10016000010318475C0400007C040000103A24BF1F
:1001700078C878C1FAD8520724BF30C830C144BF0C
:1001800004680C607047000000230024002500264E
:10019000103A28BF78C1FBD8520728BF30C148BFEA
:1001A0000B6070471FB51FBD10B510BD00F031F8D2
:1001B0001146FFF7F7FF00F0E5F900F04FF803B440
:1001C000FFF7F2FF03BC00F057F800000948804732
:1001D00009480047FEE7FEE7FEE7FEE7FEE7FEE729
:1001E000FEE7FEE7FEE7FEE704480549054A064B41
:1001F00070470000D504000831010008C800002045
:10020000C8060020C8020020C802002070477047BE
:100210007047754600F02CF8AE4605006946534617
:1002200020F00700854618B020B5FFF7DDFFBDE8D8
:1002300020404FF000064FF000074FF000084FF04D
:10024000000B21F00701AC46ACE8C009ACE8C009DE
:10025000ACE8C009ACE8C0098D46704710B504464B
:10026000AFF300802046BDE81040FFF7A8BF0000B4
:10027000004870476800002001491820ABBEFEE727
:10028000260002007047000010B54448806940F421
:100290008040424988610846806940F004008861D6
:1002A0003F48006840F080003D490860084600680B
:1002B00020F0400008600846006840F03000086008
:1002C0000846006820F4006008600846006840F4B2
:1002D000806008600846006820F44070086040F2C2
:1002E000712030490880081D008820F48050091DC5
:1002F00008800846008820F480600880081D008877
:1003000020F44050091D0880081F008840F00800B4
:10031000091F08800846008840F00400088008464D
:10032000008840F0200008800846008840F0100057
:100330000880032002461C4B19684FF6FF03194042
:100340001A4B0B4343EA0221174B196000BF2520CB
:100350000221002808DA0A07140E134A0C3200F0B2
:100360000F031B1FD45403E00A07130E104A135443
:1003700000BF252000F01F02012191404209920098
:1003800002F1E022C2F8001100BF0648001D0088FB
:1003900040F400500349091D088010BD00100240C0
:1003A00004080140083801400CED00E00000FA05A7
:1003B00000E400E000BF0549098801F08001002940
:1003C000F9D00249091D088070470000003801403B
:1003D00010B503460C46002204E0985CFFF7EAFFE4
:1003E000501C82B2A242F8DB10BD10B500F002F83A
:1003F00010BD00000CB5002001900090334800684B
:1004000040F480303149086000BF3048006800F493
:10041000003000900198401C0190009818B9019894
:10042000B0F5A06FF1D12948006800F4003010B198
:100430000120009001E0002000900098012843D1A5
:100440002348006840F01000214908600846006811
:1004500020F0070008600846006840F002000860CD
:100460001A4840681949486008464068486008468C
:10047000406840F4806048600846406820F47C1082
:1004800048600846406840F4E81048600846006844
:1004900040F08070086000BF0C48006800F00070F9
:1004A0000028F9D00948406820F003000749486057
:1004B0000846406840F00200486000BF03484068BA
:1004C00000F00C000828F9D10CBD0000001002401B
:1004D0000020024010B51348006840F001001149A7
:1004E000086008464068104908400E4948600846C0
:1004F00000680E4908400B4908600846006820F46F
:10050000802008600846406820F4FE0048604FF4F0
:100510001F008860FFF769FF4FF000600449086022
:1005200010BD0000001002400000FFF8FFFFF6FEC3
:1005300008ED00E00F48008800F0200060B10D4891
:10054000001D00880C490D4A127888540B48007829
:10055000401C0A4908700CE00648008800F01000B2
:1005600038B1044800880348001D00880120044970
:10057000087070470038014004000020000000208F
:1005800001000020FFF780FE032109A0FFF720FFF4
:100590000CE00848007848B1074801780748FFF7A1
:1005A00017FF00200349087003490870F1E70000B5
:1005B00061626300010000200000002004000020B0
:1005C000E005000800000020040000006C010008A5
:1005D000E405000804000020C406000088010008AB
:0405E0000000000017
:0400000508000131BD
:00000001FF
