:020000040800F2
:100000007004002049010008510100085301000854
:1000100055010008570100085901000800000000C0
:100020000000000000000000000000005B0100086C
:100030005D010008000000005F0100086101000888
:100040006301000863010008630100086301000800
:1000500063010008630100086301000863010008F0
:1000600063010008630100086301000863010008E0
:1000700063010008630100086301000863010008D0
:1000800063010008630100086301000863010008C0
:1000900063010008630100086301000863010008B0
:1000A00063010008630100086301000863010008A0
:1000B0006301000863010008630100086301000890
:1000C0006301000863010008630100086301000880
:1000D0006301000849080008630100086301000883
:1000E0006301000863010008630100086301000860
:1000F0006301000863010008630100086301000850
:10010000630100086301000863010008630100083F
:10011000630100086301000863010008630100082F
:10012000630100086301000863010008630100081F
:10013000DFF810D000F02CF800480047BD09000897
:10014000AFF300807004002006488047064800474F
:10015000FEE7FEE7FEE7FEE7FEE7FEE7FEE7FEE777
:10016000FEE7FEE7E907000831010008D2B201E02E
:1001700000F8012B491EFBD270470022F6E710B5AC
:1001800013460A4604461946FFF7F0FF204610BD05
:10019000064C074D06E0E06840F0010394E80700D4
:1001A00098471034AC42F6D3FFF7C6FFB40A0008F4
:1001B000D40A000800B5034603E04FF47A7000F05B
:1001C00006F8181EA3F101018BB2F6D100BD00EBB9
:1001D000C001C9004FF0E022516100219161052169
:1001E000116100BF4FF0E021096901F4803100295D
:1001F000F8D04FF0E021096921F001014FF0E02231
:100200001161704710B51948006840F40060174943
:1002100008600846006820F4806008600A20FFF744
:10022000D6FF1248006820F40060104908600A20D8
:10023000FFF7CDFF0D48006840F480600B4908606F
:100240000A20FFF7C4FF0948006820F480600749CE
:1002500008600A20FFF7BBFF0448006840F4006014
:10026000024908600A20FFF7B2FF10BD0C0C0140E4
:100270000848806940F0080006498861064800681F
:1002800040F4EE40044908600846006820F4084045
:100290000860704700100240040C014010B510487F
:1002A000006840F400600E4908600846006820F4C9
:1002B000806008600A20FFF78AFF0948006840F460
:1002C0008060074908600A20FFF781FF0448006842
:1002D00020F48060024908600A20FFF778FF10BD13
:1002E0000C0C014010B50C48006840F400600A494D
:1002F00008600846006840F4806008600A20FFF744
:1003000066FF0548006820F40060034908600A2081
:10031000FFF75DFF10BD00000C0C014010B50C484C
:10032000006840F480600A4908600846006820F4CC
:10033000006008600A20FFF74AFF0548006840F4A3
:100340000060034908600A20FFF741FF10BD00006C
:100350000C0C014010B51548006840F400601349CA
:1003600008600846006820F4806008600A20FFF7F3
:100370002EFF0E48006840F480600C4908600A2097
:10038000FFF725FF00240948001F006800F4006003
:1003900000B101240548006820F48060034908602A
:1003A0000A20FFF714FF204610BD00000C0C01408E
:1003B00070B50024002526E01548006820F4806010
:1003C000134908600A20FFF702FF1148006840F453
:1003D00080600F4908600A20FFF7F9FE6006040EEE
:1003E0000B48001F006800F4006008B144F00104ED
:1003F0000748006820F48060054908600A20FFF77C
:10040000E6FE681CC5B2082DD6DB204670BD000094
:100410000C0C014070B50446002536E01C4800680D
:1004200020F400601A4908600846006820F48060E3
:1004300008600A20FFF7CBFE04F0800030B11448BA
:10044000006840F400601249086005E01048006848
:1004500020F400600E4908600A20FFF7B8FE0C483F
:10046000006840F480600A4908600A20FFF7AFFE88
:100470000748006820F48060054908600A20FFF7FB
:10048000A6FE6006040E681CC5B2082DC6DB70BD52
:100490000C0C014010B54448806940F4804042494A
:1004A00088610846806940F0040088613F48006820
:1004B00040F080003D4908600846006820F0400098
:1004C00008600846006840F0300008600846006890
:1004D00020F4006008600846006840F4806008600E
:1004E0000846006820F44070086040F271203049EE
:1004F0000880081D008820F48050091D08800846E7
:10050000008820F480600880081D008820F4405096
:10051000091D0880081F008840F00800091F088096
:100520000846008840F0040008800846008840F033
:10053000200008800846008840F010000880032052
:1005400002461C4B19684FF6FF0319401A4B0B4328
:1005500043EA0221174B196000BF25200221002821
:1005600008DA0A07140E134A0C3200F00F031B1F9F
:10057000D45403E00A07130E104A135400BF252079
:1005800000F01F02012191404209920002F1E02295
:10059000C2F8001100BF0648001D008840F400505A
:1005A0000349091D088010BD0010024004080140E5
:1005B000083801400CED00E00000FA0500E400E01E
:1005C00000BF0549098801F080010029F9D00249DE
:1005D000091D0880704700000038014010B5FFF782
:1005E00047FE10BD70B50446FFF77CFEA020FFF764
:1005F00011FFFFF7AFFE2046FFF70CFFFFF7AAFE43
:10060000FFF770FEA120FFF705FFFFF7A3FEFFF73E
:10061000CFFE0546FFF742FEFFF780FE284670BD7D
:100620002DE9F04107460E461546FFF75BFEA02078
:10063000FFF7F0FEFFF78EFE3846FFF7EBFEFFF701
:1006400089FEFFF74FFEA120FFF7E4FEFFF782FED1
:1006500000240CE0FFF7ACFE3055681EA04202DD1E
:10066000FFF7D0FD01E0FFF719FE601CC4B2AC42F9
:10067000F0DBFFF753FEBDE8F08170B505460C4690
:10068000FFF730FEA020FFF7C5FEFFF763FE06462A
:100690005EB92846FFF7BEFEFFF75CFE2046FFF777
:1006A000B9FEFFF757FEFFF739FE0520FFF782FD81
:1006B00070BD2DE9F04107460D461646FFF712FEC4
:1006C000A020FFF7A7FEFFF745FE8046B8F1000F18
:1006D00011D13846FFF79EFEFFF73CFE002406E0EE
:1006E000285DFFF797FEFFF735FE601CC4B2B442E9
:1006F000F6DBFFF713FE0520FFF75CFDBDE8F08198
:1007000010B500F001F810BD0CB50020019000906C
:100710003348006840F480303149086000BF3048F9
:10072000006800F4003000900198401C019000988F
:1007300018B90198B0F5A06FF1D12948006800F40C
:10074000003010B10120009001E0002000900098DE
:10075000012843D12348006840F010002149086077
:100760000846006820F0070008600846006840F06E
:10077000020008601A484068194948600846406805
:1007800048600846406840F4806048600846406819
:1007900020F47C1048600846406840F4E810486047
:1007A0000846006840F08070086000BF0C48006890
:1007B00000F000700028F9D00948406820F00300DC
:1007C000074948600846406840F00200486000BFA2
:1007D0000348406800F00C000828F9D10CBD000067
:1007E000001002400020024010B51348006840F09D
:1007F00001001149086008464068104908400E4948
:100800004860084600680E4908400B4908600846E1
:10081000006820F4802008600846406820F4FE004C
:1008200048604FF41F008860FFF76AFF4FF00060D8
:100830000449086010BD0000001002400000FFF8ED
:10084000FFFFF6FE08ED00E00F48008800F02000F2
:1008500060B10D48001D00880C490D4A127888547B
:100860000B480078401C0A4908700CE006480088D4
:1008700000F0100038B1044800880348001D0088CB
:10088000012004490870704700380140080000202A
:1008900000000020010000200FB4054B10B503A993
:1008A000044A029800F017F810BC5DF814FB000031
:1008B000AD0900080400002002E008C8121F08C1AA
:1008C000002AFAD170477047002001E001C1121FD1
:1008D000002AFBD170472DE9F84F99469246884689
:1008E0000546002706E025280AD051464A4690478B
:1008F0006D1C7F1C28780028F5D13846BDE8F88F9C
:10090000002315F8011F18462E2915D115F8011FCF
:1009100004232A290DD06FF02F022978A1F1300489
:10092000092C09D800EB800002EB400008446D1C44
:10093000F3E758F8040B6D1C2A78002ADDD0632AEF
:1009400007D0732A0FD0104651464A4690477F1C65
:100950002AE018F8042B8DF8002000218DF80110F2
:100960006E46012103E058F8046B4FF0FF315A073F
:100970004FF0000401D409E0641C84420BDA8C427D
:10098000FADB325D002AF7D105E0641C8C42FCDB07
:10099000305D0028F9D1274404E016F8010B5146D8
:1009A0004A469047641EF8D26D1CA3E700B5024684
:1009B0000B46D0B2FFF704FE104600BD9AB0FFF719
:1009C00069FD27A0FFF768FFFFF708FE61210020FF
:1009D000FFF753FE62210120FFF74FFE6321022043
:1009E000FFF74BFE0020FFF7FDFD04460120FFF757
:1009F000F9FD05460220FFF7F5FD0646214621A038
:100A0000FFF74AFF29461FA0FFF746FF31461DA00A
:100A1000FFF742FF06221DA10020FFF74AFE6421D6
:100A200001A8FFF7AAFB062201A90020FFF7F8FDA5
:100A300001A918A0FFF730FF642101A8FFF79DFB73
:100A4000152216A10020FFF734FE152201A900206F
:100A5000FFF7E6FD01A90FA0FFF71EFF00BFFEE7AD
:100A6000C9D0B9E8B9C82049324320C8EDBCFEC49A
:100A7000A3CABDCAB5D1E9BFAACABC2E2E2E2E0D5F
:100A80000A00000025630D0A0000000031323334F3
:100A90003536000025730D0A000000003031323376
:100AA0003435363738396162636465666768696A08
:100AB0006B000000D40A00080000002008000000BD
:100AC000B8080008DC0A00080800002068040000DC
:0C0AD000C8080008000000000000000042
:0400000508000131BD
:00000001FF
