:020000040800F2
:1000000060060020B1010008B9010008BB0100082A
:10001000BD010008BF010008C10100080000000088
:10002000000000000000000000000000C301000804
:10003000C501000800000000C7010008C901000850
:10004000CB010008CB010008CB010008CB01000860
:10005000CB010008CB010008CB010008CB01000850
:10006000CB010008CB010008CB010008CB01000840
:10007000CB010008CB010008CB010008CB01000830
:10008000CB010008CB010008CB010008CB01000820
:10009000CB010008CB010008CB010008CB01000810
:1000A000CB010008CB010008CB010008CB01000800
:1000B000CB010008CB010008CB010008CB010008F0
:1000C000CB010008CB010008CB010008CB010008E0
:1000D000CB010008CB010008CB010008CB010008D0
:1000E00045040008CB010008CB010008CB01000843
:1000F000CB010008CB010008CB010008CB010008B0
:10010000CB010008CB010008CB010008CB0100089F
:10011000CB010008CB010008CB010008CB0100088F
:10012000CB010008CB010008CB010008CB0100087F
:1001300000F002F800F02CF80AA090E8000C8244CD
:100140008344AAF10107DA4501D100F021F8AFF2AA
:10015000090EBAE80F0013F0010F18BFFB1A43F0A5
:100160000103184764040000740400000023002405
:1001700000250026103A28BF78C1FBD8520728BFB7
:1001800030C148BF0B6070471FB51FBD10B510BD13
:1001900000F031F81146FFF7F7FF00F00FFA00F01A
:1001A0004FF803B4FFF7F2FF03BC00F057F800006C
:1001B0000948804709480047FEE7FEE7FEE7FEE7FB
:1001C000FEE7FEE7FEE7FEE7FEE7FEE70448054937
:1001D000054A064B704700005D0500083101000824
:1001E0006000002060060020600200206002002005
:1001F000704770477047754600F02CF8AE46050012
:100200006946534620F00700854618B020B5FFF731
:10021000DDFFBDE820404FF000064FF000074FF033
:1002200000084FF0000B21F00701AC46ACE8C00914
:10023000ACE8C009ACE8C009ACE8C0098D4670471D
:1002400010B50446AFF300802046BDE81040FFF72C
:10025000A8BF000000487047000000200149182096
:10026000ABBEFEE726000200704700B5034603E080
:100270004FF47A7000F006F8181EA3F101018BB25A
:10028000F6D100BD00EBC001C9004FF0E022516182
:10029000002191610521116100BF4FF0E021096942
:1002A00001F480310029F8D04FF0E021096921F0F4
:1002B00001014FF0E02211617047000010B5344891
:1002C000806940F08000324988610846806940F0CA
:1002D000010088612F48006820F440702D490860B3
:1002E0000846006840F4006008600846006820F492
:1002F0008060086027480830006820F48060254945
:10030000083108602448006920F4706122480161C6
:10031000006940F4A061204801612048006840F471
:1003200080601E4908601D480838006840F48060FD
:100330001A490839086004200246194B19684FF61B
:10034000FF031940174B0B4343EA0221144B19607A
:1003500000BF28200321002808DA0A07140E104ADB
:100360000C3200F00F031B1FD45403E00A07130ED6
:100370000D4A135400BF282000F01F0201219140B4
:100380004209920002F1E022C2F8001100BF10BD44
:1003900000100240041C014000000140080401401C
:1003A0000CED00E00000FA0500E400E000B51348A1
:1003B000806940F00400114988611148006840F0EC
:1003C00033000F4908600846006820F0CC00086040
:1003D000081D006840F00300091D08600846006819
:1003E00020F00C000860012000F00CF8022000F062
:1003F00009F84FF4807000F005F800BD00100240CD
:1004000000080140024909680143014A1160704730
:100410000C080140024909688143014A1160704794
:100420000C08014000B5034605480068184018B99B
:100430001846FFF7E7FF02E01846FFF7EBFF00BDA5
:100440000808014010B50948006840F48060074979
:1004500008600520FFF709FF0548006800F4806088
:1004600010B10120FFF7DEFF10BD000014040140B1
:10047000081C014010B500F001F810BD0CB50020BB
:10048000019000903348006840F4803031490860A2
:1004900000BF3048006800F4003000900198401C14
:1004A0000190009818B90198B0F5A06FF1D12948D2
:1004B000006800F4003010B10120009001E000203D
:1004C00000900098012843D12348006840F01000B4
:1004D000214908600846006820F0070008600846C7
:1004E000006840F0020008601A48406819494860F6
:1004F0000846406848600846406840F480604860AC
:100500000846406820F47C1048600846406840F483
:10051000E81048600846006840F08070086000BF3E
:100520000C48006800F000700028F9D009484068C5
:1005300020F00300074948600846406840F0020088
:10054000486000BF0348406800F00C000828F9D15B
:100550000CBD0000001002400020024010B51348FE
:10056000006840F0010011490860084640681049E1
:1005700008400E494860084600680E4908400B498B
:1005800008600846006820F480200860084640683B
:1005900020F4FE0048604FF41F008860FFF76AFFF8
:1005A0004FF000600449086010BD000000100240D8
:1005B0000000FFF8FFFFF6FE08ED00E0FFF7F6FE93
:1005C000FFF77CFE00BFFEE7D80500080000002012
:0805D000600600006C01000848
:0400000508000131BD
:00000001FF
