:020000040800F2
:100000007004002049010008510100085301000854
:1000100055010008570100085901000800000000C0
:100020000000000000000000000000005B0100086C
:100030005D010008000000005F0100086101000888
:100040006301000863010008630100086301000800
:1000500063010008630100086301000863010008F0
:1000600063010008630100086301000863010008E0
:1000700063010008630100086301000863010008D0
:1000800063010008630100086301000863010008C0
:1000900063010008630100086301000863010008B0
:1000A00063010008630100086301000863010008A0
:1000B0006301000863010008630100086301000890
:1000C0006301000863010008630100086301000880
:1000D000630100087104000863010008630100085F
:1000E0006301000863010008630100086301000860
:1000F0006301000863010008630100086301000850
:10010000630100086301000863010008630100083F
:10011000630100086301000863010008630100082F
:10012000630100086301000863010008630100081F
:10013000DFF810D000F01AF8004800472105000849
:10014000AFF300807004002006488047064800474F
:10015000FEE7FEE7FEE7FEE7FEE7FEE7FEE7FEE777
:10016000FEE7FEE71104000831010008064C074DC8
:1001700006E0E06840F0010394E807009847103477
:10018000AC42F6D3FFF7D8FF480500086805000821
:1001900000B5034603E04FF47A7000F006F8181E2D
:1001A000A3F101018BB2F6D100BD00EBC001C90083
:1001B0004FF0E0225161002191610521116100BFE2
:1001C0004FF0E021096901F480310029F8D04FF0A7
:1001D000E021096921F001014FF0E022116170472F
:1001E00010B54448806940F480404249886108461F
:1001F000806940F0040088613F48006840F080005A
:100200003D4908600846006820F040000860084644
:10021000006840F0300008600846006820F4006084
:1002200008600846006840F480600860084600687E
:1002300020F44070086040F2712030490880081DA9
:10024000008820F48050091D08800846008820F4AA
:1002500080600880081D008820F44050091D088037
:10026000081F008840F00800091F08800846008821
:1002700040F0040008800846008840F02000088014
:100280000846008840F010000880032002461C4BFE
:1002900019684FF6FF0319401A4B0B4343EA02213A
:1002A000174B196000BF25200221002808DA0A0731
:1002B000140E134A0C3200F00F031B1FD45403E03A
:1002C0000A07130E104A135400BF252000F01F0226
:1002D000012191404209920002F1E022C2F800118E
:1002E00000BF0648001D008840F400500349091D66
:1002F000088010BD00100240040801400838014089
:100300000CED00E00000FA0500E400E000BF054944
:10031000098801F080010029F9D00249091D0880EF
:10032000704700000038014010B500F001F810BD22
:100330000CB50020019000903348006840F48030F4
:100340003149086000BF3048006800F40030009078
:100350000198401C0190009818B90198B0F5A06F61
:10036000F1D12948006800F4003010B1012000905C
:1003700001E0002000900098012843D12348006844
:1003800040F01000214908600846006820F007008E
:1003900008600846006840F0020008601A4840689B
:1003A000194948600846406848600846406840F47B
:1003B000806048600846406820F47C104860084629
:1003C000406840F4E81048600846006840F08070DB
:1003D000086000BF0C48006800F000700028F9D0E9
:1003E0000948406820F00300074948600846406813
:1003F00040F00200486000BF0348406800F00C0075
:100400000828F9D10CBD0000001002400020024075
:1004100010B51348006840F0010011490860084613
:100420004068104908400E494860084600680E4977
:1004300008400B4908600846006820F480200860E6
:100440000846406820F4FE0048604FF41F008860B2
:10045000FFF76AFF4FF000600449086010BD00001C
:10046000001002400000FFF8FFFFF6FE08ED00E07C
:100470000F48008800F0200060B10D48001D008882
:100480000C490D4A127888540B480078401C0A49E0
:1004900008700CE00648008800F0100038B10448ED
:1004A00000880348001D0088012004490870704737
:1004B000003801400800002000000020010000205A
:1004C000014A024900F013B8110500080400002099
:1004D00002E008C8121F08C1002AFAD1704770470D
:1004E000002001E001C1121F002AFBD170472DE955
:1004F000F04116460F460446002503E03946B04752
:10050000641C6D1C20780028F8D12846BDE8F081D5
:1005100000B502460B46D0B2FFF7F8FE104600BD0C
:10052000FFF75EFE06E004A0FFF7CAFF4FF4FA7083
:10053000FFF72EFEF7E7000068656C6C6F206174B2
:1005400067756967750D0A006805000800000020DE
:1005500008000000D0040008700500080800002012
:1005600068040000E0040008000000000000000033
:0400000508000131BD
:00000001FF
