:020000040800F2
:10000000B0040020490100085F160008CF10000866
:100010005D160008B5010008F9170008000000008F
:10002000000000000000000000000000631600084F
:10003000B7010008000000006116000865160008FE
:100040006301000863010008630100086301000800
:1000500063010008630100086301000863010008F0
:1000600063010008630100086301000863010008E0
:1000700063010008630100086301000863010008D0
:1000800063010008630100086301000863010008C0
:1000900063010008630100086301000863010008B0
:1000A00063010008630100086301000863010008A0
:1000B0006301000863010008630100086301000890
:1000C0006301000863010008630100086301000880
:1000D0006301000863010008630100086301000870
:1000E0006301000863010008630100086301000860
:1000F0006301000863010008630100086301000850
:10010000630100086301000863010008630100083F
:10011000630100086301000863010008630100082F
:10012000630100086301000863010008630100081F
:10013000DFF810D000F02CF80048004749190008FB
:10014000AFF30080B004002006488047064800470F
:10015000FEE7FEE7FEE7FEE7FEE7FEE7FEE7FEE777
:10016000FEE7FEE7C716000831010008D2B201E041
:1001700000F8012B491EFBD270470022F6E710B5AC
:1001800013460A4604461946FFF7F0FF204610BD05
:10019000064C074D06E0E06840F0010394E80700D4
:1001A00098471034AC42F6D3FFF7C6FF181A000880
:1001B000381A0008FEE7704772B6FEE770B50446CD
:1001C00000F00AF90546601C02D004480078044497
:1001D00000F002F9401BA042FAD370BD00000020DD
:1001E0002DE9F84FDFF8C8910024A9F1040B23464C
:1001F0000F2709F1040AABF1040ED1E00125A54057
:1002000006EA0502AA4276D1DFF8A8C14E68A6EB3D
:100210000C0866452BD00DDC032E34D005DC36B33C
:10022000012E19D0022E2FD11BE0112E16D0122E26
:100230002AD119E0B8F5881F19D006DCB8F5803F3F
:1002400015D0B8F5801F1FD111E0B8F5001F0ED0F2
:10025000B8F5041F18D10AE0CB6815E0CB681B1D68
:1002600012E0CB6808330FE0CB680C330CE08B68EE
:100270002BB1012B4FF0080303D0456104E00423A8
:1002800002E0056100E00023FF2A01D8064601E0F4
:1002900000F104064FEA840501D9A5F12005D6F83E
:1002A000008007FA05FC28EA0C0803FA05F548EA7D
:1002B0000508C6F800804D68ED0070D53E4DAE696A
:1002C00046F00106AE61AD6924F0030605F00105B4
:1002D00000953A4D06EB050CDCF80850A607360FE2
:1002E00007FA06F825EA0805DFF8D480404503D16F
:1002F0004FF0000825E052E0DFF8C880404502D109
:100300004FF001081DE0DFF8C080404502D14FF0FA
:10031000020816E0DFF8B480404502D14FF0030830
:100320000FE0DFF8AC80404502D14FF0040808E050
:10033000DFF8A080404502D14FF0050801E04FF002
:10034000060808FA06F848EA0508CCF808804D685F
:10035000D9F80060ED024D4601D5164300E0964302
:100360002E604D68DAF80060AD02554601D516439F
:1003700000E096432E604D68DBF80060AD035D46FB
:1003800001D5164300E096432E604D68DEF800600C
:10039000ED03754601D5164300E096432E60641CBC
:1003A0000A681646E2407FF429AFBDE8F88F0000E6
:1003B000080401400000111000100240000001403C
:1003C00000080140000C01400010014000140140F1
:1003D00000180140001C014001488068704700007F
:1003E0000000002070B5040025D094F83D000025E1
:1003F00020B984F83C50204600F078FA242084F894
:100400003D002068016821F0010101602068016859
:1004100041F4004101602068016821F4004101605D
:1004200000F0B4FB4D4A6168914201D84C4900E0AC
:100430004C49884201D2012070BD4B492368B0FB72
:10044000F1F15E6826F03F060E435E6063689342FA
:1004500006D94FF4967359434FF47A73B1FBF3F115
:100460002368491C1E6A26F03F0631431962616801
:10047000914210D84900401EB0FBF1F2521CC2F369
:100480000B02042A01D2042022E0B0FBF1F0401C50
:10049000C0F30B001CE0A268F2B301EBC10303EB55
:1004A0000116431EB3FBF6F35B1C43F480431B05AC
:1004B00049D092B301EBC10202EB0111401EB0FB27
:1004C000F1F0401CC0F30B0040F4804040F40040C9
:1004D0002168CA694CF6FF739A431043C861D4E996
:1004E000071001432068026822F0C0021143016036
:1004F000D4E9030101432068826848F2FF339A433C
:1005000011438160D4E9050108432168CA6822F0DB
:10051000FF021043C86001E00EE016E020680168A9
:1005200041F0010101602564202084F83D0025632D
:1005300084F83E50002070BD01EB4106431EB3FB22
:10054000F6F35B1CB3E70120C2E701EB4101401E5B
:10055000B0FBF1F0401CC0F30B00B7E7A086010030
:1005600080841E0000093D0040420F002DE9FF4F2E
:1005700083B00025DDE910799A4693460446DDF8FC
:1005800048800095FFF728FF064694F83D00202894
:100590007CD11923012285492046009600F0AEFE49
:1005A0000028F5D194F83C0001286FD0012084F890
:1005B0003C0020680168C90703D1016841F00101CE
:1005C00001602068016821F400610160222084F844
:1005D0003D00402084F83E0025646762A4F82A901C
:1005E000608D20857248E062CDE9008653465A4608
:1005F0002046049900F084FD00287DD1208DDFF88D
:10060000B491202768B1012814D00228206801681D
:100610001ED041F4806101602068416980690090CA
:10062000B6E02068416981690091016841F4007178
:100630000160ADE02068016821F48061016072B65C
:100640002068416981690091016841F400710AE004
:1006500041F40061016072B62068416981690091CE
:10066000016821F48061016062B691E0032868D8D6
:1006700001280CD0022843464FF00002494620468C
:1006800000960FD000F03AFEB0BB10E08BE032468F
:100690004146204600F0D8FE70BB20680069616AC0
:1006A00008706CE000F02AFE30BB72B634E02068BF
:1006B000016821F48061016072B620680069616A96
:1006C0000870606A401C6062208D401E2085608D2D
:1006D000401E6085384846F2A8110068B0FBF1F072
:1006E000C0EBC00000EB80000090401E009008D0DE
:1006F00020684069C04300E029E040070CD500981D
:10070000F3E744F8305F6773A573206940F0200079
:10071000206162B625731AE02068016841F4007117
:10072000016020680069616A0870606A401C60624C
:10073000218D491E2185618D491E618562B6216822
:100740001BE032464146204600F07EFE18B10120F3
:1007500007B0BDE8F08F20680069616A0870606AC0
:10076000401C6062218D491E2185618D491E618575
:1007700021684A69D24352070AD409690170606A44
:10078000401C6062208D401E2085608D401E60856B
:10079000208D00287FF46AAF84F83D7084F83E50C5
:1007A00084F83C50D4E70220D2E700000200100099
:1007B0000000FFFF040001000C0000202DE9FF4FA6
:1007C00083B09A46DDE9119793460446DDF84080F0
:1007D000FFF702FE054694F83D0020287FD119233B
:1007E000012240492046009500F088FD002876D17E
:1007F00094F83C00012872D0012084F83C00206865
:100800000168C90703D1016841F001010160206856
:10081000016821F400610160212084F83D0040203E
:1008200084F83E0000262664C4F82480A4F82A90A8
:10083000608D20852C48E062CDE9007553465A460C
:100840002046049900F0DAFC70B930E02A463946B7
:10085000204600F031FE58B1206C042804D12068F5
:10086000016841F400710160012007B0BDE8F08F1C
:10087000606A216800780861606A401C6062218DAE
:10088000491E89B22185628D521E62852268536994
:10089000DB435B070BD469B100781061606A401CD0
:1008A0006062208D401E2085608D401E6085208DF9
:1008B0000028CBD12A463946204600F0F3FC002818
:1008C000CAD154F83D0B016841F400710160202049
:1008D00004F81E09E67766770020C6E7FFE70220E6
:1008E000C3E70000020010000000FFFF10B586B053
:1008F0000021009101910291039100681049884202
:100900001BD1104CA06940F00800A061A0696946A5
:1009100000F0080004904FF4406000901220019015
:10092000032003900848FFF75BFCE06940F4800077
:10093000E061E06900F48000049006B010BD0000A2
:100940000058004000100240000C0140024881683D
:10095000027811448160704700000020074810B5FC
:10096000016841F010010160032000F067F80F20DA
:1009700000F006F800F024F8002010BD002002402E
:1009800070B50D4D04464FF47A712878B1FBF0F044
:100990000A490968B1FBF0F000F0CEFA48B9102C12
:1009A00007D200222146501E00F028F800206C607B
:1009B00070BD012070BD0000000000200C00002070
:1009C0000C4808B5816941F001018161816901F03C
:1009D00001010091C16941F08051C161C06900F01D
:1009E000805000900448416821F0E06141F00071BE
:1009F000416008BD0010024000000140F0B40E4B01
:100A00001B680C46C3F30223C3F10705042D00D96C
:100A10000425191D072901D2002300E0DB1E012651
:100A200006FA05F1491E214099409E40761E164067
:100A30003143F0BC00F0F2BE0CED00E0064900F0DE
:100A4000070208684FF6FF03184040EA0220034AF5
:100A500010430860704700000CED00E00000FA054C
:100A60002DE9F0470F46050061D0434E306800F095
:100A70000700B84209D2306820F0070038433060E0
:100A8000306800F00700B84251D128683B4C81071C
:100A900012D5400703D5606840F4E06060602878B4
:100AA000000703D5606840F4605060606068A96822
:100AB00020F0F000084360602878C00728D06868FC
:100AC000012810D02168022810D0890700292EDAC9
:100AD000616821F0030101436160FFF77DFC8046FE
:100AE00041F288390DE021688903EFE78901EDE7DC
:100AF000FFF772FCA0EB0801494502D90320BDE8CD
:100B0000F0876068696800F00C00B0EB810FEFD1EE
:100B1000306800F00700B8420BD9306820F00700B9
:100B200038433060306800F00700B84201D001203F
:100B3000E5E72878400705D56068E96820F4E060BB
:100B4000084360602878000706D56068296920F4AA
:100B5000605040EAC100606000F038F86168084AFF
:100B6000C1F30311515CC84006490860064800689B
:100B7000FFF706FF0020C2E70020024000100240FD
:100B8000001A00080C000020040000200448054959
:100B900000684968044AC1F30221515CC8407047AB
:100BA0000C00002000100240101A000804480549FB
:100BB00000684968044AC1F3C221515CC8407047CB
:100BC0000C00002000100240101A00080E4A516864
:100BD0000E4801F00C03042B11D0082B0FD10C4848
:100BE000C1F38343C903C05C0AD55168084AC1F305
:100BF0004041921E515C054A5043B0FBF1F07047F2
:100C000004494843704700000010024000127A0077
:100C1000F019000800093D002DE9F84F040070D0DC
:100C20002078C04DC00749D06868C0F38100012812
:100C300007D06868C0F38100022809D16868C00342
:100C400006D52868800339D560680028E7D035E0EC
:100C50006068B0F5803F0BD010B1B0F5A02F11D077
:100C6000286820F480302860286820F4802002E082
:100C7000286840F480302860606890B1FFF7ACFBD2
:100C800006460AE0286840F480202860F0E700BFAC
:100C9000FFF7A2FB801B642873D828688003F7D570
:100CA0000CE0FFF799FB064605E000BFFFF794FB59
:100CB000801B6428F0D828688003F7D420789A4EE7
:100CC00080074FF001094FF0000839D5686810F02F
:100CD0000C0F07D06868C0F38100022809D168684A
:100CE000C00306D42868800714D52069012808D1DC
:100CF00010E02069B0B1C6F80090FFF76DFB074621
:100D000005E00AE1FFF768FBC01B0228C4D8286889
:100D10008007F7D52868616920F0F80040EAC10033
:100D200028600DE0C6F80080FFF756FB074604E098
:100D3000FFF752FBC01B022823D828688007F7D48E
:100D4000207800072CD57948A169D9B1C0F8009066
:100D5000FFF742FB074604E0FFF73EFBC01B0228FB
:100D60000FD8686A8007F7D571484FF4FA510068C8
:100D7000B0FBF1F0009000BF0098411E0091FAD244
:100D80000EE080E0C0F80080FFF726FB074604E095
:100D9000FFF722FBC01B022875D8686A8007F7D4CA
:100DA0002078400760D5E8690027C00008D4E869CA
:100DB00040F08050E861E869012700F08050009021
:100DC0005C480168C90513D40168834641F4807109
:100DD0000160FFF701FB824606E000BFFFF7FCFA67
:100DE000A0EB0A0064284ED8DBF80000C005F5D55A
:100DF000E06801280AD008B1052813D0286A20F03D
:100E000001002862286A20F0040002E0286A40F00D
:100E100001002862E06841F2883B98B1FFF7DCFAF4
:100E200082460BE0286A40F004002862EEE700BF2B
:100E3000FFF7D2FAA0EB0A0159455AD8286A800771
:100E4000F6D50CE0FFF7C8FA824605E0FFF7C4FAD2
:100E5000A0EB0A0159454CD8286A8007F6D41FB187
:100E6000E86920F08050E861E06988B36968C1F3FF
:100E70008101022944D00228C6F8608004D0FFF71F
:100E8000ABFA044638E034E0FFF7A6FA074604E080
:100E9000FFF7A2FAC01B02282BD828688001F7D4DC
:100EA000206AB0F5803F05D16868A16820F4003061
:100EB00008436860D4E908010843696821F47411A3
:100EC00008436860C6F86090FFF786FA044606E0BB
:100ED00025E000BFFFF780FA001B022809D8286828
:100EE0008001F7D51BE000BFFFF776FA001B022850
:100EF00002D90320BDE8F88F28688001F4D40EE001
:100F00000128F7D06868226A00F48031914204D148
:100F1000616A00F47010884201D00120EAE70020E5
:100F2000E8E7000000100240000042428004424214
:100F30000C0000200070004010B5401EB0F1807F12
:100F400001D3012010BD4FF0E02460610F21601734
:100F500000F064FC0020A06107202061002010BD8B
:100F600070B5040004D094F84100002510B106E0EB
:100F7000012070BD84F84050204600F023F8242062
:100F800084F841002068C16821F40051C160204606
:100F900000F09AFB2068016921F49041016120680A
:100FA000416921F02A0141612068C16841F4005182
:100FB000C1606564202084F8410084F842006563C4
:100FC000002070BD30B585B00024009401940294D7
:100FD000039400681449884224D11448816941F47B
:100FE00080418161816901F480410491816941F00E
:100FF0000401816180690E4D00F0040004904FF4FB
:10100000007000900220019003200390694628465A
:10101000FFF7E6F82815CDE9000469462846029452
:10102000FFF7DEF805B030BD003801400010024087
:10103000000801402DE9F843044690F841001F469E
:1010400016460D46202802D00220BDE8F8837DB167
:1010500076B100206064212084F84100FFF7BCF9DC
:10106000A6848046E684A068B0F5805F02D003E0E5
:101070000120EAE7206910B12E4600250EE0002687
:101080000CE08021204600F07BFBA0B9AEB116F841
:10109000010B21684860E08C401EE084E08C4346F0
:1010A0004FF0000200970028EBD14FF0400120469E
:1010B00000F066FB30B10320C7E735F8020BC0F340
:1010C0000800E6E7202084F841000020BDE7FEE7A5
:1010D00001684A69D24352050FD46FF480624A61B5
:1010E000002140F8301F202242738173026942F0D0
:1010F0000402026101730120704700207047000064
:101100002DE9F84F0446006889460B9D0168984612
:10111000174641F4806101602068016841F48071E4
:10112000016000954FF0011B0022594620460A9BA2
:1011300000F0E4F84FF4007A40B120680068C00580
:1011400001D5C4F840A00320BDE8F88F216809F05C
:10115000FE0008612B46284920460A9A00F016F93D
:10116000F0BB20684169806900902A4620460A99B0
:1011700000F0A2F940B1206C04283AD1206801683F
:1011800041F40071016034E0FEB2B8F1010F09D002
:101190002168380A08612A4620460A9900F08CF92D
:1011A0000028E8D1206806612A4620460A9900F006
:1011B00083F90028DFD12068016841F48071016063
:1011C00000950022594620460A9B00F097F8002817
:1011D000B3D1216809F0FF0040F00100086100E090
:1011E00007E02B46044920460A9A00F0CFF8002871
:1011F000AAD00120A8E70000020001002DE9F84371
:10120000044600680D46DDE90897016898461646D1
:1012100041F4807101604B4600224FF001112046DD
:10122000009700F06BF848B120680068C00502D54F
:101230004FF4007020640320BDE8F883216805F0B6
:10124000FE0008613B464A461549204600F09EF8DC
:1012500088B920684169806900903A46494620462D
:1012600000F02AF948B1206C042804D120680168F4
:1012700041F4007101600120DEE7F5B2B8F1010F21
:1012800009D02168300A08613A464946204600F0F4
:1012900013F90028E7D1206805610020CCE70000A1
:1012A0000200010070B516460D4604461EE02046B9
:1012B000FFF70EFF08B1012070BD681C16D0FFF7C4
:1012C0008BF8801BA84200D885B920684069C043CC
:1012D00040070BD5002044F8300F20216173A07324
:1012E000216941F0200121612073E4E72068406911
:1012F000C0434007DBD4002070BD00002DE9F0475B
:10130000984617460D460446C1F30746DDF820907F
:101310002AE000BFB8F1FF3F26D0FFF75DF8A0EB51
:101320000901414502D8B8F1000F1DD12068012EF6
:1013300016D0806925EA00000004000C12D00020BD
:10134000B84211D1002044F8300F20216173A073FE
:10135000216941F02001216120730120BDE8F0875F
:101360004069E7E70120EBE72068012E0AD0806999
:1013700025EA00000004000C06D00020B842C9D0C5
:101380000020EBE74069F3E70120F7E72DE9F0479C
:10139000984616460D4604464FF000094FF0200AC5
:1013A000C1F3074723E020684069C043400515D4D6
:1013B0002068016841F40071016021686FF4806069
:1013C0004861C4F8309084F83DA084F83E90216CC8
:1013D00041F00401216484F83C9021E0701C06D0A7
:1013E000FEF7FAFFA0EB0800B04203D816B1012FB8
:1013F0001FD021E02068012F15D0806925EA000068
:101400000004000C18D000BF44F8309F84F80DA0F1
:1014100084F80E90216941F02001216184F80C903C
:101420000120BDE8F087406925EA00000004000CB7
:10143000EAD12068406901E02068806925EA00005F
:101440000004000CAFD1ECE72DE9F04100259046F7
:101450000E460446202728E04069C043C0060CD44D
:1014600054F8301B6FF01000486144F8105967774A
:10147000A577206A2062257714E0FEF7ADFFA0EB88
:101480000800B04200D886B920684069C0434006D1
:101490000BD544F8305F6773A573206940F02000D6
:1014A000206125730120BDE8F08120684169C943AE
:1014B0004906D1D40020F6E770B516460D4604461D
:1014C0001EE02046FFF704FE08B1012070BD681C35
:1014D00016D0FEF781FF801BA84200D885B920688E
:1014E0004069C04300060BD5002044F8300F20218E
:1014F0006173A073216941F0200121612073E4E749
:1015000020684069C0430006DBD4002070BD00F0B5
:1015100069B800001FB54FF4FA63012203A98DE8F2
:101520000E0013460246A1210348FFF71FF89DF85D
:101530000C0004B010BD0000140000200EB54FF4E4
:10154000FA638DE80E0002460123A1210148FFF74E
:101550000DF80EBD1400002003B583B04FF4FA63FC
:10156000012204A98DE80E0013460246A02104487A
:10157000FFF724F90520FEF721FE05B000BD0000AD
:10158000140000200EB54FF4FA638DE80E000246F9
:101590000123A0210348FFF711F9BDE80E40052003
:1015A000FEF70CBE140000200D4808B5816941F01B
:1015B00010018161816901F010010091816941F0A0
:1015C00008018161816901F008010091816941F0A0
:1015D00004018161806900F00400009008BD0000F2
:1015E000001002400D4810B50B4901600C494160E4
:1015F00000214FF480428160C0E9031241618161A2
:10160000C1610162FEF7EEFE002803D0BDE8104084
:10161000FEF7D2BD10BD00000058004014000020AD
:10162000A08601000C4810B50A4901604FF4E13171
:101630004160002181600C22C160C0E90412816117
:10164000C161FFF78DFC002803D0BDE81040FEF714
:10165000B3BD10BD0038014068000020FEE7FEE782
:1016600070477047FFF772B930B58FB028216846D0
:10167000FEF783FD14210AA8FEF77FFD012108046F
:10168000CDE900100024029402250491CDE9075011
:101690004FF4E01009906846FFF7BEFA08B172B641
:1016A000FEE70F20CDE90A054FF48060CDE90C403C
:1016B00002210AA80E94FFF7D3F9002801D072B6D0
:1016C000FEE70FB030BD704770B504460068016991
:1016D000E26821F44051114301612169A068084387
:1016E000616908432168CA6841F20C639A43024366
:1016F000CA6020684169A26921F4407111434161C7
:101700001E492068884202D1FFF750FA01E0FFF736
:101710003DFA00EBC00101EB00126068642180001B
:10172000B2FBF0F3B3FBF1F36FF018067343B2FBB7
:10173000F0F5B2FBF0F605EB8305322303EB05155C
:10174000B5FBF1F5B6FBF1F605F0F00505EB061576
:10175000B2FBF0F6B2FBF0F0B0FBF1F06FF0180264
:10176000504306EB800003EB0010B0FBF1F0216862
:1017700000F00F002844886070BD00000038014070
:101780002DE9F041984617460E460446069D27E08F
:10179000681C25D02DB1FEF71FFEA0EB0800A84263
:1017A0001ED920680C3050E8001F21F4D07140E8A9
:1017B0000012002AF5D12068143050E8001F21F0F3
:1017C000010140E80012002AF5D1202084F84100F0
:1017D00084F84200002084F840000320BDE8F08136
:1017E0002068006836EA000004D00020B842CFD05C
:1017F0000020F3E70120F9E7FEE700000FB4054BF6
:1018000010B503A9044A029800F027F810BC5DF84F
:1018100014FB000031190008100000200907090E10
:10182000002804DB00F1E02080F80014704700F08D
:101830000F0000F1E02080F8141D704702E008C896
:10184000121F08C1002AFAD170477047002001E03A
:1018500001C1121F002AFBD170472DE9F84F9946AC
:10186000924688460546002706E025280AD05146BC
:101870004A4690476D1C7F1C28780028F5D13846D1
:10188000BDE8F88F002315F8011F18462E2915D141
:1018900015F8011F04232A290DD06FF02F02297893
:1018A000A1F13004092C09D800EB800002EB4000C4
:1018B00008446D1CF3E758F8040B6D1C2A78002AC5
:1018C000DDD0632A07D0732A0FD0104651464A460E
:1018D00090477F1C2AE018F8042B8DF80020002187
:1018E0008DF801106E46012103E058F8046B4FF0AB
:1018F000FF315A074FF0000401D409E0641C844210
:101900000BDA8C42FADB325D002AF7D105E0641C69
:101910008C42FCDB305D0028F9D1274404E016F846
:10192000010B51464A469047641EF8D26D1CA3E74E
:1019300013B54FF47A73012269460248FFF77AFB28
:1019400000981CBD6800002086B0FFF707F8FFF77D
:101950008BFEFFF729FEFFF765FEFFF7D8FD61213B
:101960000020FFF7F9FD0020FFF7D4FD014617A086
:10197000FFF744FF174A03AB07CA83E807000522B5
:1019800003A90120FFF7FEFD0120FFF7C3FD01467B
:101990000EA0FFF733FF0220FFF7BCFD01460BA0AE
:1019A000FFF72CFF0320FFF7B5FD014607A0FFF767
:1019B00025FF002000900190062269460290FFF763
:1019C000BDFD694604A0FFF719FFFEE7633D2563EF
:1019D0000D0A0000E4190008627566663D25730D66
:1019E0000A00000068656C6C6F00000000000102D6
:1019F00002030405060708090A0B0C0D0E0F101050
:101A000000000000000000000102030406070809AE
:101A10000000000001020304381A00080000002042
:101A2000140000003C1800084C1A000814000020A4
:101A30009C0400004C180008010000001000000089
:0C1A4000000000000024F4000000000082
:0400000508000131BD
:00000001FF
