:020000040800F2
:100000007004002049010008510100085301000854
:1000100055010008570100085901000800000000C0
:100020000000000000000000000000005B0100086C
:100030005D010008000000005F0100086101000888
:100040006301000863010008630100086301000800
:1000500063010008630100086301000863010008F0
:1000600063010008630100086301000863010008E0
:1000700063010008630100086301000863010008D0
:1000800063010008630100086301000863010008C0
:1000900063010008630100086301000863010008B0
:1000A00063010008630100086301000863010008A0
:1000B0006301000863010008630100086301000890
:1000C0006301000863010008630100086301000880
:1000D0006301000875070008630100086301000858
:1000E0006301000863010008630100086301000860
:1000F0006301000863010008630100086301000850
:10010000630100086301000863010008630100083F
:10011000630100086301000863010008630100082F
:10012000630100086301000863010008630100081F
:10013000DFF810D000F042F800480047CD09000871
:10014000AFF300807004002006488047064800474F
:10015000FEE7FEE7FEE7FEE7FEE7FEE7FEE7FEE777
:10016000FEE7FEE71507000831010008D2B201E002
:1001700000F8012B491EFBD270470022F6E710B5AC
:1001800013460A4604461946FFF7F0FF204610BD05
:1001900030B50B46014600202022012409E021FA57
:1001A00002F59D4205D303FA02F5491B04FA02F554
:1001B0002844151EA2F10102F1DC30BD064C074DAA
:1001C00006E0E06840F0010394E807009847103427
:1001D000AC42F6D3FFF7B0FFC00A0008E00A0008FF
:1001E00000B5034603E04FF47A7000F006F8181EDD
:1001F000A3F101018BB2F6D100BD00EBC001C90033
:100200004FF0E0225161002191610521116100BF91
:100210004FF0E021096901F480310029F8D04FF056
:10022000E021096921F001014FF0E02211617047DE
:100230000348008840F4806001490880704700004E
:10024000005800401B48C06940F480001949C8614B
:100250000846806940F0080088611748006840F44B
:100260007F40154908601548008820F002001349B6
:100270000880081D008840F02400091D08800F48F0
:100280001C30008820F400400C491C3108800846CE
:10029000008840F0B4000880081D008840F0250068
:1002A000091D08800548008840F0010003490880C6
:1002B0007047000000100240040C0140005800404C
:1002C0000348008820F480600149088070470000DE
:1002D000005800400B48008840F48070094A1080A4
:1002E0004FF6FF7101E0481E81B2064814300088C5
:1002F00000F0010008B90029F5D109B101207047CB
:100300000020FCE7005800400348008840F40070DB
:100310000149088070470000005800404FF6FF7107
:1003200001E04A1E91B2074A128802F040020AB95F
:100330000029F6D119B1034A121F128800E00022E9
:10034000D0B270471458004070B505464FF6FF74A0
:1003500001E0601E84B21148008800F0800008B9F6
:10036000002CF6D121460EA000F02CFA0B48001FFD
:1003700005804FF6FF7401E0601E84B207480088D4
:1003800000F0020008B9002CF6D114B10348001D9A
:1003900000880CB1012070BD0020FCE7145800401B
:1003A00074696D656F75743D25640A0002464FF6E9
:1003B000FF7101E0481E81B20D48008800F0800006
:1003C00008B90029F6D10A48001F02804FF6FF71D4
:1003D00001E0481E81B20648008800F0040008B918
:1003E0000029F6D109B1012070470020FCE7000088
:1003F0001458004010B54448806940F48040424998
:1004000088610846806940F0040088613F480068C0
:1004100040F080003D4908600846006820F0400038
:1004200008600846006840F0300008600846006830
:1004300020F4006008600846006840F480600860AE
:100440000846006820F44070086040F2712030498E
:100450000880081D008820F48050091D0880084687
:10046000008820F480600880081D008820F4405037
:10047000091D0880081F008840F00800091F088037
:100480000846008840F0040008800846008840F0D4
:10049000200008800846008840F0100008800320F3
:1004A00002461C4B19684FF6FF0319401A4B0B43C9
:1004B00043EA0221174B196000BF252002210028C2
:1004C00008DA0A07140E134A0C3200F00F031B1F40
:1004D000D45403E00A07130E104A135400BF25201A
:1004E00000F01F02012191404209920002F1E02236
:1004F000C2F8001100BF0648001D008840F40050FB
:100500000349091D088010BD001002400408014085
:10051000083801400CED00E00000FA0500E400E0BE
:1005200000BF0549098801F080010029F9D002497E
:10053000091D0880704700000038014010B5FFF722
:1005400081FE10BD70B50446FFF7C4FEA020FFF782
:10055000FBFE2046FFF72AFFFFF7BCFEA120FFF7B6
:10056000F3FEFFF7ADFEFFF7CFFEFFF7D7FE054620
:10057000284670BD2DE9F04107460E461546FFF7A7
:10058000A9FEA020FFF7E0FE3846FFF70FFFFFF7B8
:10059000A1FEA120FFF7D8FE00240EE0681EA042B5
:1005A00002DDFFF745FE03E0FFF78AFEFFF7ACFE32
:1005B000FFF7B4FE3055601CC4B2AC42EEDBBDE8C0
:1005C000F08170B505460C46FFF784FE0646A02074
:1005D000FFF7BAFE06462846FFF7E8FE0646204625
:1005E000FFF7E4FE0646FFF78FFE0520FFF7F8FD54
:1005F00070BD2DE9F04107460D461646FFF76AFE2D
:10060000A020FFF7A1FE3846FFF7D0FE002404E04B
:10061000285DFFF7CBFE601CC4B2B442F8DBFFF7E5
:1006200073FE0520FFF7DCFDBDE8F08110B500F09A
:1006300001F810BD0CB5002001900090334800680F
:1006400040F480303149086000BF3048006800F451
:10065000003000900198401C0190009818B9019852
:10066000B0F5A06FF1D12948006800F4003010B156
:100670000120009001E0002000900098012843D163
:100680002348006840F010002149086008460068CF
:1006900020F0070008600846006840F0020008608B
:1006A0001A4840681949486008464068486008464A
:1006B000406840F4806048600846406820F47C1040
:1006C00048600846406840F4E81048600846006802
:1006D00040F08070086000BF0C48006800F00070B7
:1006E0000028F9D00948406820F003000749486015
:1006F0000846406840F00200486000BF0348406878
:1007000000F00C000828F9D10CBD000000100240D8
:100710000020024010B51348006840F00100114964
:10072000086008464068104908400E49486008467D
:1007300000680E4908400B4908600846006820F42C
:10074000802008600846406820F4FE0048604FF4AE
:100750001F008860FFF76AFF4FF0006004490860DF
:1007600010BD0000001002400000FFF8FFFFF6FE81
:1007700008ED00E00F48008800F0200060B10D484F
:10078000001D00880C490D4A127888540B480078E7
:10079000401C0A4908700CE00648008800F0100070
:1007A00038B1044800880348001D0088012004492E
:1007B0000870704700380140080000200000002049
:1007C000010000200FB4054B10B503A9044A02989C
:1007D00000F018F810BC5DF814FB0000BD0900081B
:1007E0000400002002E008C8121F08C1002AFAD144
:1007F00070477047002001E001C1121F002AFBD1A1
:10080000704700002DE9FF4F8BB09A460F46054612
:10081000002606E025280BD052460D9990476D1C06
:10082000761C28780028F5D10FB03046BDE8F08F4F
:100830000024A0460122604900E0044315F8013F6E
:10084000203B02FA03F00842F7D128782E2817D16E
:1008500015F8010F44F004042A280ED06FF02F027F
:100860002878A0F1300109290AD808EB880102EBA9
:10087000410100EB01086D1CF2E757F8048B6D1C79
:10088000287869283ED006DC0028CDD063280BD01C
:10089000642804D136E0732810D075284BD0524616
:1008A0000D999047761C85E017F8040B8DF8000031
:1008B00000208DF80100E946012003E057F8049B71
:1008C0004FF0FF3061074FF0000401D40AE0641CD0
:1008D00044450DDA8442FADB19F804100029F6D1F8
:1008E00006E0641C8442FCDB19F804100029F8D1EE
:1008F000264404E019F8010B52460D999047641EF6
:10090000F8D257E001CF4FF00A0B002802DA40423C
:100910002D2102E0210504D52B218DF82410012181
:1009200003E0E10705D02021F7E70DF12009089148
:100930000CE00021F9E701CF4FF00A0BF9E7594627
:10094000FFF726FC01F1300209F8012D0028F6D14D
:10095000ADEB090000F1200B600701D44FF0010856
:10096000D84502DDA8EB0B0000E000208046002403
:1009700006E009A85246005D0D999047641C761C5C
:1009800008988442F5DB04E0302052460D999047E8
:10099000761CB8F10001A8F10108F5DC05E019F8B2
:1009A000010B52460D999047761CBBF10001ABF14B
:1009B000010BF4DC6D1C34E70928010000B5024688
:1009C0000B46D0B2FFF7ACFD104600BD9AB0FFF762
:1009D00011FD27A0FFF7F6FEFFF7B0FD78210020FC
:1009E000FFF7EFFD79210120FFF7EBFD7A210220CF
:1009F000FFF7E7FD0020FFF7A5FD04460120FFF704
:100A0000A1FD05460220FFF79DFD0646214620A0D8
:100A1000FFF7D8FE29461EA0FFF7D4FE31461CA0E2
:100A2000FFF7D0FE06221CA10020FFF7E2FD6421A3
:100A300001A8FFF7A2FB062201A90020FFF79AFDFB
:100A400001A917A0FFF7BEFE642101A8FFF795FBDF
:100A5000152215A10020FFF7CCFD152201A90020C9
:100A6000FFF788FD01A90EA0FFF7ACFE00BFFEE76F
:100A7000C9D0B9E8B9C82049324320D3B2BCFE205E
:100A8000CAB5D1E9BFAACABC2E2E2E2E0D0A00006F
:100A900025630D0A00000000313233343536000082
:100AA00025730D0A000000003031323334353637FB
:100AB00038396162636465666768696A6B00000063
:100AC000E00A00080000002008000000E407000819
:100AD000E80A00080800002068040000F407000885
:080AE00000000000000000000E
:0400000508000131BD
:00000001FF
