:020000040800F2
:1000000020040020490100085101000853010008A4
:1000100055010008570100085901000800000000C0
:100020000000000000000000000000005B0100086C
:100030005D010008000000005F0100086101000888
:100040006301000863010008630100086301000800
:1000500063010008630100086301000863010008F0
:1000600063010008630100086301000863010008E0
:1000700063010008630100086301000863010008D0
:1000800063010008630100086301000863010008C0
:1000900063010008630100086301000863010008B0
:1000A00063010008630100086301000863010008A0
:1000B0006301000863010008630100086301000890
:1000C0006301000863010008630100086301000880
:1000D00063010008090E00086301000863010008BD
:1000E000FD0B0008630100086301000863010008BC
:1000F0006301000863010008630100086301000850
:10010000630100086301000863010008630100083F
:10011000630100086301000863010008630100082F
:10012000630100086301000863010008630100081F
:10013000DFF810D000F046F9004800471912000817
:10014000AFF300802004002006488047064800479F
:10015000FEE7FEE7FEE7FEE7FEE7FEE7FEE7FEE777
:10016000FEE7FEE7A90D00083101000830B505469D
:100170002A460B4612F8010B13F8014B08B1A042B6
:10018000F8D01CB1002802D06D1CF1E7284630BD24
:100190000FB400B58DB010A909900B9000914FF0ED
:1001A000FF300A9000200C90054806900548079003
:1001B0006A4609A80F9900F0D7F80DB05DF814FB56
:1001C00085030008A30300082DE9FF5F1D464FF0DB
:1001D000FF3BD5E9014691465F464FF00008A9690B
:1001E0007F1C01988847296A824688470028F6D1F3
:1001F000BAF1FF3F0CD024F4C064002E19DD600674
:1002000014D5BAF12B0F09D0BAF12D0F0ED103E09E
:10021000584604B0BDE8F09F44F48064A9697F1C8F
:1002200001988847761E8246002E02DDBAF1300F13
:1002300003D0B9F1000F26D032E0A969761E44F44C
:1002400000747F1C019888478246002E05DDBAF1B4
:10025000780F06D0BAF1580F03D0B9F1000F10D0C3
:100260001EE0B9F1000F02D0B9F1100F18D1A96941
:10027000761E24F400747F1C019888478246102063
:1002800002E0082000E00A20814609E008FB090896
:10029000A969761E44F400747F1C01988847824641
:1002A000002E05DD4946504600F04AF80028EDDAF8
:1002B000E96901988847A00502D46FF00100A8E71A
:1002C000E00725D1600613D5600502D5C8F100000E
:1002D00000E0404629680A1D2A600968220501D508
:1002E000087015E0220701D5088011E008600FE0D2
:1002F0002868011D29600068210502D580F800806A
:1003000006E0210702D5A0F8008001E0C0F80080D7
:1003100038467EE730B50B460146002020220124F6
:1003200009E021FA02F59D4205D303FA02F5491BC3
:1003300004FA02F52844151EA2F10102F1DC30BDD9
:100340003A2800D2303820F02002412A01D3A2F10D
:100350003700884201D34FF0FF30704702681144E4
:100360001378016018467047D1600449516104490F
:10037000116200211161114600F03CB85D030008D4
:10038000E9030008426842B1016811F8013B23B15A
:10039000521EC0E90012184670470121C160881E34
:1003A000704742685AB1C368016843B983688B4299
:1003B00005D0491E521CC0E90012002070474FF0C2
:1003C000FF307047064C074D06E0E06840F001033F
:1003D00094E8070098471034AC42F6D3FFF7ACFE20
:1003E0005C1300087C130008C0B24FF4F05100F019
:1003F00099B900002DE9F34F8BB04FF0000801F1DF
:100400000C000C464FF0010B46460DF1080A019016
:100410006269012101989047051E2DD0252D2CD011
:10042000216A8847C0B16269012101989047216A19
:1004300088470028F7D1411E62690198904700E083
:10044000761CA1690B988847216A88470028F7D154
:10045000E1690B988847DBE7A1690B988847074655
:10046000A84201D1761CD3E7E1690B9888477F1C2D
:1004700002D1B8F1000F6FD047E1002762693D4615
:100480003946019890472A2804D1626901210198D0
:1004900090470125DFF88892626901210198904711
:1004A000A0F130010A290AD24F45E5DC07EB8701AC
:1004B00000EB4107303FDFD445F01005ECE7E906DB
:1004C00001D46FF000476C280AD04C2814D068285B
:1004D00015D06A280DD074281CD07A281AD01DE0B7
:1004E00062690121019890476C2802D045F004050B
:1004F00014E045F002050DE045F020050AE06269D0
:10050000012101989047682802D045F0080505E0D0
:1005100045F400656269012101989047C4E90157DB
:1005200065283DD019DC58287AD00CDC452837D016
:1005300004DC252826D0412831D131E046282FD0AF
:1005400047282CD12CE05B2877D0612828D063285D
:100550007CD0642823D15AE0D1E06F2848D008DC51
:1005600066281DD067281BD0692821D06E2816D197
:1005700027E0702845D0732868D0752847D07828A0
:100580000DD14DE0A1690B988847054625283FF419
:1005900069AFE1690B9888476D1C3FF46AAFB4E01E
:1005A00023466A466FF001000B99AFF300809FE08D
:1005B00045F040006060A80723464FF0000236D4A3
:1005C0003EE0E8077FF447AF2068011D2160006826
:1005D000290501D506701BE7290701D5068017E715
:1005E000A90703D5F117C0E9006111E706600FE71D
:1005F00045F040006060A80723464FF0080216D47B
:100600001EE040F60E0125EA0100606016E045F0AC
:1006100040006060A80723464FF00A0207D40FE0AD
:1006200045F040006060A80708D5234610226FF00F
:1006300001000B99AFF300805AE007E02346102237
:100640006FF001000B99FFF7BFFD51E04FF000097B
:100650004F464B46632802D05B2807D041E0207903
:10066000C00601D40120A06001273AE0626901219F
:10067000019890475E2805D14FF00109626949460B
:1006800001989047216939B900210A46534643F839
:100690002120491C0829FADBB0B3216969B9C117C7
:1006A00000EBD16253110AEB830122F01F02821A80
:1006B00001200B68904003430B606269012101989F
:1006C00090475D28E8D1B9F1000F09D000205146CC
:1006D00051F82020D24341F82020401C0828F7DBA5
:1006E00002AB224600976FF001000B99AFF3008038
:1006F00000280CDA401C08D1BBF1000F05D04FF0E8
:10070000FF300DB0BDE8F08FFFE74046F9E7E9079D
:1007100001D108F1010806444FF0000B78E6000013
:10072000CCCCCC0C7F2801D9002208E0064A02EB91
:100730005002C007127800D1120902F00F02012006
:1007400090400840704700001C13000800B50346A5
:1007500003E04FF47A7000F006F8181EA3F10101CF
:100760008BB2F6D100BD00EBC001C9004FF0E02212
:100770005161002191610521116100BF4FF0E0211D
:10078000096901F480310029F8D04FF0E0210969AE
:1007900021F001014FF0E022116170470348008809
:1007A00040F4806001490880704700000058004014
:1007B0001B48C06940F480001949C8610846806937
:1007C00040F0080088611748006840F47F401549F0
:1007D00008601548008820F0020013490880081DB1
:1007E000008840F02400091D08800F481C30008854
:1007F00020F400400C491C3108800846008840F075
:10080000B4000880081D008840F02500091D0880FC
:100810000548008840F00100034908807047000047
:1008200000100240040C01400058004003480088BA
:1008300020F48060014908807047000000580040A3
:100840000B48008840F48070094A10804FF6FF7111
:1008500001E0481E81B206481430008800F0010013
:1008600008B90029F5D109B1012070470020FCE743
:10087000005800400348008840F400700149088097
:1008800070470000005800404FF6FF7101E04A1E1B
:1008900091B2074A128802F040020AB90029F6D143
:1008A00019B1034A121F128800E00022D0B270472B
:1008B0001458004002464FF6FF7101E0481E81B215
:1008C0000F48008800F0800008B90029F6D10C48D4
:1008D000001F02804FF6FF7101E0481E81B20848F8
:1008E000008800F0020008B90029F6D111B10448CF
:1008F000001D008809B1012070470020FCE70000BE
:100900001458004002464FF6FF7101E0481E81B2C4
:100910000D48008800F0800008B90029F6D10A4887
:10092000001F02804FF6FF7101E0481E81B20648A9
:10093000008800F0040008B90029F6D109B10120AF
:1009400070470020FCE700001458004010B5344800
:10095000806940F08000324988610846806940F033
:10096000010088612F48006820F440702D4908601C
:100970000846006840F4006008600846006820F4FB
:100980008060086027480830006820F480602549AE
:10099000083108602448006920F470612248016130
:1009A000006940F4A061204801612048006840F4DB
:1009B00080601E4908601D480838006840F4806067
:1009C0001A490839086003200246194B19684FF686
:1009D000FF031940174B0B4343EA0221144B1960E4
:1009E00000BF28200321002808DA0A07140E104A45
:1009F0000C3200F00F031B1FD45403E00A07130E40
:100A00000D4A135400BF282000F01F02012191401D
:100A10004209920002F1E022C2F8001100BF10BDAD
:100A200000100240041C0140000001400804014085
:100A30000CED00E00000FA0500E400E000B513480A
:100A4000806940F00400114988611148006840F055
:100A500033000F4908600846006820F0CC000860A9
:100A6000081D006840F00300091D08600846006882
:100A700020F00C000860012000F0B0F8022000F027
:100A8000ADF84FF4807000F0A9F800BD00100240EE
:100A90000008014010B54448806940F48040424954
:100AA00088610846806940F0040088613F4800681A
:100AB00040F080003D4908600846006820F0400092
:100AC00008600846006840F030000860084600688A
:100AD00020F4006008600846006840F48060086008
:100AE0000846006820F44070086040F271203049E8
:100AF0000880081D008820F48050091D08800846E1
:100B0000008820F480600880081D008820F4405090
:100B1000091D0880081F008840F00800091F088090
:100B20000846008840F0040008800846008840F02D
:100B3000200008800846008840F01000088003204C
:100B400002461C4B19684FF6FF0319401A4B0B4322
:100B500043EA0221174B196000BF2520022100281B
:100B600008DA0A07140E134A0C3200F00F031B1F99
:100B7000D45403E00A07130E104A135400BF252073
:100B800000F01F02012191404209920002F1E0228F
:100B9000C2F8001100BF0648001D008840F4005054
:100BA0000349091D088010BD0010024004080140DF
:100BB000083801400CED00E00000FA0500E400E018
:100BC00000BF0549098801F080010029F9D00249D8
:100BD000091D08807047000000380140024909687B
:100BE0000143014A116070470C080140024909683D
:100BF0008143014A116070470C08014000B5094863
:100C0000006840F4806007490860072000F072FA2D
:100C10000548006800F4806010B1012003490870A5
:100C200000BD000014040140081C01400900002020
:100C300010B5FFF7BDFD10BD2DE9F04107460E468A
:100C40001546FFF7FDFDA020FFF734FE3846FFF7FD
:100C500059FEFFF7F5FDA120FFF72CFE00240EE062
:100C6000681EA04202DDFFF799FD03E0FFF7DEFDFD
:100C7000FFF700FEFFF708FE3055601CC4B2AC421F
:100C8000EEDBBDE8F0812DE9F04107460D46164642
:100C9000FFF7D6FDA020FFF70DFE3846FFF732FE26
:100CA000002404E0285DFFF72DFE601CC4B2B442AE
:100CB000F8DBFFF7DFFD0520FFF748FDBDE8F08119
:100CC00010B500F001F810BD0CB5002001900090A7
:100CD0003348006840F480303149086000BF304834
:100CE000006800F4003000900198401C01900098CA
:100CF00018B90198B0F5A06FF1D12948006800F447
:100D0000003010B10120009001E000200090009818
:100D1000012843D12348006840F0100021490860B1
:100D20000846006820F0070008600846006840F0A8
:100D3000020008601A48406819494860084640683F
:100D400048600846406840F4806048600846406853
:100D500020F47C1048600846406840F4E810486081
:100D60000846006840F08070086000BF0C480068CA
:100D700000F000700028F9D00948406820F0030016
:100D8000074948600846406840F00200486000BFDC
:100D90000348406800F00C000828F9D10CBD0000A1
:100DA000001002400020024010B51348006840F0D7
:100DB00001001149086008464068104908400E4982
:100DC0004860084600680E4908400B49086008461C
:100DD000006820F4802008600846406820F4FE0087
:100DE00048604FF41F008860FFF76AFF4FF0006013
:100DF0000449086010BD0000001002400000FFF828
:100E0000FFFFF6FE08ED00E01148008800F020002A
:100E100060B10F48001D00880E490F4A12788854AF
:100E20000D480078401C0C4908700FE00848008805
:100E300000F0100050B1064800880548001D0088E9
:100E4000012006490870002003490870704700001F
:100E5000003801401000002007000020080000209A
:100E60000FB4054B10B503A9044A029800F018F816
:100E700010BC5DF814FB0000891100080C00002074
:100E800002E008C8121F08C1002AFAD17047704753
:100E9000002001E001C1121F002AFBD170470000B1
:100EA0002DE9FF4F8BB09A460F460546002606E017
:100EB00025280BD052460D9990476D1C761C28783A
:100EC0000028F5D10FB03046BDE8F08F0024A046D1
:100ED0000122604900E0044315F8013F203B02FA7B
:100EE00003F00842F7D128782E2817D115F8010F02
:100EF00044F004042A280ED06FF02F022878A0F1C5
:100F0000300109290AD808EB880102EB410100EB06
:100F100001086D1CF2E757F8048B6D1C28786928CE
:100F20003ED006DC0028CDD063280BD0642804D145
:100F300036E0732810D075284BD052460D99904753
:100F4000761C85E017F8040B8DF8000000208DF862
:100F50000100E946012003E057F8049B4FF0FF3001
:100F600061074FF0000401D40AE0641C44450DDA27
:100F70008442FADB19F804100029F6D106E0641C5B
:100F80008442FCDB19F804100029F8D1264404E05F
:100F900019F8010B52460D999047641EF8D257E09C
:100FA00001CF4FF00A0B002802DA40422D2102E067
:100FB000210504D52B218DF82410012103E0E10740
:100FC00005D02021F7E70DF1200908910CE0002160
:100FD000F9E701CF4FF00A0BF9E75946FFF79AF905
:100FE00001F1300209F8012D0028F6D1ADEB09001E
:100FF00000F1200B600701D44FF00108D84502DD55
:10100000A8EB0B0000E000208046002406E009A8C1
:101010005246005D0D999047641C761C08988442E6
:10102000F5DB04E0302052460D999047761CB8F16C
:101030000001A8F10108F5DC05E019F8010B5246A2
:101040000D999047761CBBF10001ABF1010BF4DC6C
:101050006D1C34E70928010010B50D480078A8B1CF
:1010600000200B4908700B480078401C09490870A3
:1010700008460078032190FBF1F201FB12000549BC
:1010800008700846017804A0FFF7EAFE10BD0000D2
:101090000900002006000020C4E3B0B4CFC2C1CBD9
:1010A000B0B4BCFC3A2025640D0A000010B5094814
:1010B000007868B1084909A0FFF7D2FE0020054971
:1010C000087000F069F80B2203490020FFF7DBFDF0
:1010D00010BD00000800002010000020CFC2B7A201
:1010E000B5C4D0C2B5C4C3FCC1EE3A2025730D0A05
:1010F00000000000002107E042F6E06100BF0A1E88
:10110000A1F1010399B2FAD1021EA0F1010398B234
:10111000F2D1704710B500242FE040F20310FFF722
:101120005DFD4FF4FA70FFF711FB1548154909787A
:1011300000EB4100005D012802D1FFF757FD16E0EA
:101140000F481049097800EB4100005D022802D1E8
:10115000FFF74CFD0BE00A480A49097800EB410013
:10116000005D032803D14FF48070FFF73FFD4FF47B
:10117000FA70FFF7EBFA601CC4B2022CCDDB10BD95
:10118000000000200600002000B502460B46D0B249
:10119000FFF716FD104600BD7FB513494A1E881E95
:1011A000431ECDE90030CDE90221831EC21E0FA1EE
:1011B0001648FEF7EDFF002412E0002509E00A487A
:1011C000401F00EB4400415D11A0FFF749FE681C81
:1011D000C5B2022DF3DB0FA0FFF742FE601CC4B2C4
:1011E000032CEADB7FBD0000050000202568687540
:1011F0002C2568687523256868752C256868752313
:10120000256868752C2568687500000010000020AE
:10121000256409000D0A0000FFF73CFC1CA0FFF745
:101220001FFEFFF70BFCFFF791FBFFF701FD0B2201
:101230001F490020FFF700FD1EA11D48FEF796FF85
:10124000002816D11CA0FFF70BFE22A0FFF708FE16
:1012500000BF264800780028FBD0002023490870F2
:10126000134923A0FFF7FCFD0B2211490020FFF7D3
:101270000AFD0F4923A0FFF7F3FDFFF78DFF05E0FF
:10128000FFF748FFFFF7E8FEFFF710FFF8E7000061
:10129000C9D0B9E8B9C82049324320D3B2BCFE2036
:1012A000CAB5D1E9BFAACABC2E2E2E2E0D0A000047
:1012B0001000002023000000B4D3453250524F4D9F
:1012C000D6D0C3BBD3D0B6C1B5BDD6B8C1EE2E2ED5
:1012D0002E0D0A00B5C8B4FDB4AEBFDACFC2B7A2B6
:1012E000D6B8C1EE2E2E2E0D0A00000008000020F8
:1012F000CFC2B7A2B5C4D6B8C1EECAC73A202573CB
:101300000D0A0000BFAACABCBDE2CEF6D6B8C1EE37
:101310002E2E2E202573200D0A000000DDDDDDDDE0
:10132000DCBBBBDDDDDDDDDDDDDDDDDD9888888876
:10133000888888887777777777888888855555561D
:101340006666666666666666666888888333333274
:1013500022222222222222222228888D7C13000887
:101360000000002010000000800E00088C13000810
:101370001000002010040000900E00080000000083
:0C13800000000000000000000000000061
:0400000508000131BD
:00000001FF
