:020000040800F2
:100000007004002049010008510100085301000854
:1000100055010008570100085901000800000000C0
:100020000000000000000000000000005B0100086C
:100030005D010008000000005F01000839050008AC
:100040006301000863010008630100086301000800
:1000500063010008630100086301000863010008F0
:1000600063010008630100086301000863010008E0
:1000700063010008630100086301000863010008D0
:1000800063010008630100086301000863010008C0
:1000900063010008630100086301000863010008B0
:1000A00063010008630100086301000863010008A0
:1000B0006301000863010008630100086301000890
:1000C0006301000863010008630100086301000880
:1000D00063010008F50500086301000863010008DA
:1000E0006301000863010008630100086301000860
:1000F0006301000863010008630100086301000850
:10010000630100086301000863010008630100083F
:100110006301000863010008D105000863010008BD
:10012000630100086301000863010008630100081F
:10013000DFF810D000F030F800480047E907000869
:10014000AFF300807004002006488047064800474F
:10015000FEE7FEE7FEE7FEE7FEE7FEE7FEE7FEE777
:10016000FEE7FEE7710500083101000830B50B46D7
:10017000014600202022012409E021FA02F59D42D7
:1001800005D303FA02F5491B04FA02F52844151EAB
:10019000A2F10102F1DC30BD064C074D06E0E0683B
:1001A00040F0010394E8070098471034AC42F6D3BE
:1001B000FFF7C2FF180800083808000800B5134808
:1001C000806940F00400114988611148006840F0DE
:1001D00033000F4908600846006820F0CC00086032
:1001E000081D006840F00300091D0860084600680B
:1001F00020F00C000860012000F00AF9022000F055
:1002000007F94FF4807000F003F900BD00100240C0
:100210000008014010B52748C06940F0100025498A
:10022000C86141F61F402449088542F20F70888555
:100230000846008840F0040008800846808A40F0A4
:10024000010088820846808940F0010088810320EF
:1002500002461A4B19684FF6FF031940184B0B431F
:1002600043EA0221154B196000BF36200121002806
:1002700008DA0A07140E114A0C3200F00F031B1F94
:10028000D45403E00A07130E0E4A135400BF36205D
:1002900000F01F02012191404209920002F1E02288
:1002A000C2F8001100BF0448008840F00100024974
:1002B000088010BD00100240001000400CED00E06E
:1002C0000000FA0500E400E010B54448806940F4FD
:1002D0008040424988610846806940F00400886196
:1002E0003F48006840F080003D49086008460068CB
:1002F00020F0400008600846006840F030000860C8
:100300000846006820F4006008600846006840F471
:10031000806008600846006820F44070086040F281
:10032000712030490880081D008820F48050091D84
:1003300008800846008820F480600880081D008836
:1003400020F44050091D0880081F008840F0080074
:10035000091F08800846008840F00400088008460D
:10036000008840F0200008800846008840F0100017
:100370000880032002461C4B19684FF6FF03194002
:100380001A4B0B4343EA0221174B196000BF25208B
:100390000221002808DA0A07140E134A0C3200F072
:1003A0000F031B1FD45403E00A07130E104A135403
:1003B00000BF252000F01F02012191404209920058
:1003C00002F1E022C2F8001100BF0648001D0088BB
:1003D00040F400500349091D088010BD0010024080
:1003E00004080140083801400CED00E00000FA0567
:1003F00000E400E000BF0549098801F08001002900
:10040000F9D00249091D08807047000000380140FA
:10041000024909680143014A116070470C08014014
:10042000024909688143014A116070470C08014084
:1004300000B5034605480068184018B91846FFF78C
:10044000E7FF02E01846FFF7EBFF00BD0808014098
:1004500010B500F001F810BD0CB50020019000901F
:100460003348006840F480303149086000BF3048AC
:10047000006800F4003000900198401C0190009842
:1004800018B90198B0F5A06FF1D12948006800F4BF
:10049000003010B10120009001E000200090009891
:1004A000012843D12348006840F01000214908602A
:1004B0000846006820F0070008600846006840F021
:1004C000020008601A4840681949486008464068B8
:1004D00048600846406840F48060486008464068CC
:1004E00020F47C1048600846406840F4E8104860FA
:1004F0000846006840F08070086000BF0C48006843
:1005000000F000700028F9D00948406820F003008E
:10051000074948600846406840F00200486000BF54
:100520000348406800F00C000828F9D10CBD000019
:10053000001002400020024010B50B480088401C0B
:100540000949088008460088B0F57A7F0AD1084634
:10055000018806A000F076F80020034908800120F9
:10056000FFF766FF10BD00000200002025640000B8
:1005700010B51348006840F00100114908600846B2
:100580004068104908400E494860084600680E4916
:1005900008400B4908600846006820F48020086085
:1005A0000846406820F4FE0048604FF41F00886051
:1005B000FFF74EFF4FF000600449086010BD0000D7
:1005C000001002400000FFF8FFFFF6FE08ED00E01B
:1005D00010B50648008A20F0010004490882012075
:1005E000FFF726FF02A000F02DF810BD001000401C
:1005F000310D0A000F48008800F0200060B10D485E
:10060000001D00880C490D4A127888540B48007868
:10061000401C0A4908700CE00648008800F01000F1
:1006200038B1044800880348001D008801200449AF
:1006300008707047003801400800002000000020CA
:10064000010000200FB4054B10B503A9044A02981D
:1006500000F018F810BC5DF814FB0000D907000882
:100660000400002002E008C8121F08C1002AFAD1C5
:1006700070477047002001E001C1121F002AFBD122
:10068000704700002DE9FF4F89B09B4604460025C6
:1006900006E025280BD05A460B999047641C6D1C28
:1006A00020780028F5D10DB02846BDE8F08F00274E
:1006B000B8460122474900E0074314F8013F203BB8
:1006C00002FA03F00842F7D120782E2819D114F845
:1006D000010F47F004072A280ED06FF02F02207870
:1006E000A0F1300109290CD808EB880102EB410187
:1006F00000EB0108641CF2E70A98641C50F8048BB4
:100700000A9020780028CED0642808D0692806D026
:1007100075281ED05A460B9990476D1C58E00A99CF
:100720004FF00A0901C90A91002802DA40422D213E
:1007300002E0390504D52B218DF82010012103E0BA
:10074000F90704D02021F7E78A4608AE0DE0002122
:10075000FAE70A994FF00A0901C90A91F7E74946F1
:10076000FFF704FD303106F8011D0028F7D1ADEB8D
:10077000060000F12009780701D44FF00108C845B0
:1007800002DDA8EB090000E000208046002706E01B
:1007900008A85A46C05D0B9990476D1C7F1C5745B1
:1007A000F6DB04E030205A460B9990476D1CB8F1F7
:1007B0000001A8F10108F5DC05E016F8010B5A4626
:1007C0000B9990476D1CB9F10001A9F10109F4DC06
:1007D000641C65E70928010000B502460B46D0B24B
:1007E000FFF708FE104600BDFFF76EFD04A0FFF7FF
:1007F00029FFFFF7E3FCFFF70DFD00BFFEE7000058
:10080000CFB5CDB3B6A8CAB1C6F7CAB5D1E9BFAAAC
:10081000CABC2E2E2E0D0A00380800080000002049
:1008200008000000640600084008000808000020D6
:1008300068040000740600080000000000000000CA
:0400000508000131BD
:00000001FF
